:020000040800F2
:100000000000022035C70008F57300082B740008B3
:100010003D7400083F7400084174000800000000AF
:10002000000000000000000000000000014F000878
:100030004374000800000000A14F00084574000848
:1000400089C7000889C7000889C7000889C7000850
:1000500089C7000889C70008F975000889C7000822
:10006000037600080D760008177600084D74000826
:1000700089C700085D74000889C700086D7400080E
:100080007D74000889C70008757500088D74000824
:100090009D740008AD740008BD7400082176000846
:1000A00089C70008A975000889C7000889C7000822
:1000B00089C7000889C7000889C70008D9750008E2
:1000C000E975000889C7000889C7000889C70008C2
:1000D00089C7000889C7000889C7000889C70008C0
:1000E0004776000889C7000889C7000889C7000843
:1000F000C1750008CD74000889C7000889C70008C9
:1001000089C7000889C70008E5740008F57400086D
:100110000575000889C7000889C7000889C7000855
:1001200089C7000889C7000889C7000889C700086F
:1001300089C70008000000000000000089C700080F
:1001400089C7000889C7000889C700081575000815
:1001500089C7000889C7000889C7000889C700083F
:1001600089C7000889C7000889C7000889C700082F
:1001700089C7000889C700080000000000000000CF
:0801800089C7000889C70008C7
:1001900010B5054C237833B9044B13B10448AFF3C1
:1001A00000800123237010BD08060020000000001D
:1001B00014F3020808B5034B1BB103490348AFF31E
:1001C000008008BD000000000C06002014F30208A7
:1001D00010F8012B11F8013B012A28BF9A42F7D0F1
:1001E000D01A7047034613F8012B002AFBD1181AC6
:1001F000013870470000000000000000000000000F
:1002000001F0FF01102A2BDB10F0070F08D010F8C7
:10021000013B013A8B422DD010F0070F42B3F6D1CB
:10022000F0B441EA012141EA014122F007047FF0E4
:1002300000070023F0E80256083C85EA010586EA3B
:10024000010685FA47F5A3FA87F586FA47F6A5FA77
:1002500087F68EB9EED1F0BC01F0FF0102F0070283
:1002600032B110F8013B013A83EA010313B1F8D12E
:100270000020704701387047002D06BF354603380F
:10028000073815F0010F07D1013015F4807F02BF48
:10029000013015F4C03F0130F0BC0138704700BF99
:1002A00081F0004102E000BF83F0004330B54FEA27
:1002B00041044FEA430594EA050F08BF90EA020F94
:1002C0001FBF54EA000C55EA020C7FEA645C7FEA27
:1002D000655C00F0E2804FEA5454D4EB5555B8BF4A
:1002E0006D420CDD2C4480EA020281EA030382EABB
:1002F000000083EA010180EA020281EA0303362D4D
:1003000088BF30BD11F0004F4FEA01314FF4801C1F
:100310004CEA113102D0404261EB410113F0004F31
:100320004FEA03334CEA133302D0524263EB4303E8
:1003300094EA050F00F0A780A4F10104D5F1200E86
:100340000DDB02FA0EFC22FA05F2801841F10001E1
:1003500003FA0EF2801843FA05F359410EE0A5F1B5
:1003600020050EF1200E012A03FA0EFC28BF4CF0E6
:10037000020C43FA05F3C01851EBE37101F000459C
:1003800007D54FF0000EDCF1000C7EEB00006EEBA9
:100390000101B1F5801F1BD3B1F5001F0CD3490833
:1003A0005FEA30004FEA3C0C04F101044FEA44528A
:1003B00012F5800F80F09A80BCF1004F08BF5FEA11
:1003C000500C50F1000041EB045141EA050130BDF1
:1003D0005FEA4C0C404141EB0101013C28BFB1F503
:1003E000801FE9D291F0000F04BF01460020B1FA4E
:1003F00081F308BF2033A3F10B03B3F120020CDA21
:100400000C3208DD02F1140CC2F10C0201FA0CF0FE
:1004100021FA02F10CE002F11402D8BFC2F1200C63
:1004200001FA02F120FA0CFCDCBF41EA0C01904019
:10043000E41AA2BF01EB0451294330BD6FEA040462
:100440001F3C1CDA0C340EDC04F11404C4F120024D
:1004500020FA04F001FA02F340EA030021FA04F35F
:1004600045EA030130BDC4F10C04C4F1200220FAB6
:1004700002F001FA04F340EA0300294630BD21FAF4
:1004800004F0294630BD94F0000F83F4801306BFBA
:1004900081F480110134013D4EE77FEA645C18BFAE
:1004A0007FEA655C29D094EA050F08BF90EA020F45
:1004B00005D054EA000C04BF1946104630BD91EA3D
:1004C000030F1EBF0021002030BD5FEA545C05D140
:1004D0004000494128BF41F0004130BD14F580047F
:1004E0003CBF01F5801130BD01F0004545F0FE41F3
:1004F00041F470014FF0000030BD7FEA645C1ABF28
:10050000194610467FEA655C1CBF0B46024650EA5E
:10051000013406BF52EA033591EA030F41F400218A
:1005200030BD00BF90F0000F04BF0021704730B510
:100530004FF4806404F132044FF000054FF00001E5
:1005400050E700BF90F0000F04BF0021704730B5A6
:100550004FF4806404F1320410F0004548BF40427B
:100560004FF000013EE700BF42004FEAE2014FEAD0
:1005700031014FEA02701FBF12F07F4393F07F4FAB
:1005800081F06051704732F07F4208BF704793F0AE
:100590007F4F04BF41F40021704730B54FF46074C1
:1005A00001F0004521F000411CE700BF50EA0102C4
:1005B00008BF704730B54FF000050AE050EA01026D
:1005C00008BF704730B511F0004502D5404261EBDD
:1005D00041014FF4806404F132045FEA915C3FF41E
:1005E000D8AE4FF003025FEADC0C18BF03325FEABB
:1005F000DC0C18BF033202EBDC02C2F1200300FA6C
:1006000003FC20FA02F001FA03FE40EA0E0021FA90
:1006100002F11444BDE600BF70B54FF0FF0C4CF47E
:10062000E06C1CEA11541DBF1CEA135594EA0C0F30
:1006300095EA0C0F00F0DEF82C4481EA030621EA6B
:100640004C5123EA4C5350EA013518BF52EA0335A6
:1006500041F4801143F4801338D0A0FB02CE4FF058
:100660000005E1FB02E506F00042E0FB03E54FF088
:100670000006E1FB03569CF0000F18BF4EF0010E80
:10068000A4F1FF04B6F5007F64F5407404D25FEA7C
:100690004E0E6D4146EB060642EAC62141EA55512F
:1006A0004FEAC52040EA5E504FEACE2EB4F1FD0C71
:1006B00088BFBCF5E06F1ED8BEF1004F08BF5FEAEF
:1006C000500E50F1000041EB045170BD06F00046A1
:1006D00046EA010140EA020081EA0301B4EB5C044E
:1006E000C2BFD4EB0C0541EA045170BD41F4801146
:1006F0004FF0000E013C00F3AB8014F1360FDEBF6B
:10070000002001F0004170BDC4F10004203C35DA46
:100710000C341BDC04F11404C4F1200500FA05F3C9
:1007200020FA04F001FA05F240EA020001F000426A
:1007300021F0004110EBD37021FA04F642EB0601E0
:100740005EEA430E08BF20EAD37070BDC4F10C040A
:10075000C4F1200500FA04F320FA05F001FA04F2CE
:1007600040EA020001F0004110EBD37041F10001BA
:100770005EEA430E08BF20EAD37070BDC4F12005C5
:1007800000FA05F24EEA020E20FA04F301FA05F22D
:1007900043EA020321FA04F001F0004121FA04F2D5
:1007A00020EA020000EBD3705EEA430E08BF20EAA5
:1007B000D37070BD94F0000F0FD101F000464000DF
:1007C00041EB010111F4801F08BF013CF7D041EA61
:1007D000060195F0000F18BF704703F00046520065
:1007E00043EB030313F4801F08BF013DF7D043EA36
:1007F0000603704794EA0C0F0CEA135518BF95EAEC
:100800000C0F0CD050EA410618BF52EA4306D1D172
:1008100081EA030101F000414FF0000070BD50EA91
:10082000410606BF1046194652EA430619D094EA1B
:100830000C0F02D150EA013613D195EA0C0F05D105
:1008400052EA03361CBF104619460AD181EA030159
:1008500001F0004141F0FE4141F470014FF0000011
:1008600070BD41F0FE4141F4780170BD70B54FF0AC
:10087000FF0C4CF4E06C1CEA11541DBF1CEA13552C
:1008800094EA0C0F95EA0C0F00F0A7F8A4EB05040E
:1008900081EA030E52EA03354FEA013100F0888005
:1008A0004FEA03334FF0805545EA131343EA1263CE
:1008B0004FEA022245EA111545EA10654FEA002683
:1008C0000EF000419D4208BF964244F1FD0404F53C
:1008D000407402D25B084FEA3202B61A65EB030598
:1008E0005B084FEA32024FF480104FF4002CB6EB55
:1008F000020E75EB030E22BFB61A754640EA0C00D5
:100900005B084FEA3202B6EB020E75EB030E22BF14
:10091000B61A754640EA5C005B084FEA3202B6EB55
:10092000020E75EB030E22BFB61A754640EA9C0014
:100930005B084FEA3202B6EB020E75EB030E22BFE4
:10094000B61A754640EADC0055EA060E18D04FEAA2
:10095000051545EA16754FEA06164FEAC30343EA42
:1009600052734FEAC2025FEA1C1CC0D111F4801F0F
:100970000BD141EA00014FF000004FF0004CB6E708
:1009800011F4801F04BF01430020B4F1FD0C88BFA7
:10099000BCF5E06F3FF6AFAEB5EB030C04BFB6EBB2
:1009A000020C5FEA500C50F1000041EB045170BDA5
:1009B0000EF0004E4EEA113114EB5C04C2BFD4EBD2
:1009C0000C0541EA045170BD41F480114FF0000E56
:1009D000013C90E645EA060E8DE60CEA135594EAD2
:1009E0000C0F08BF95EA0C0F3FF43BAF94EA0C0FD5
:1009F0000AD150EA01347FF434AF95EA0C0F7FF44A
:100A000025AF104619462CE795EA0C0F06D152EA9D
:100A100003353FF4FDAE1046194622E750EA410681
:100A200018BF52EA43067FF4C5AE50EA41047FF492
:100A30000DAF52EA43057FF4EBAE12E74FF0FF3CF7
:100A400006E000BF4FF0010C02E000BF4FF0010CC8
:100A50004DF804CD4FEA410C7FEA6C5C4FEA430C41
:100A600018BF7FEA6C5C1BD001B050EA410C0CBF90
:100A700052EA430C91EA030F02BF90EA020F0020F2
:100A8000704710F1000F91EA030F58BF994208BF59
:100A900090422CBFD8176FEAE37040F00100704716
:100AA0004FEA410C7FEA6C5C02D150EA013C07D16D
:100AB0004FEA430C7FEA6C5CD6D152EA033CD3D0B8
:100AC0005DF8040B704700BF8446104662468C46B2
:100AD0001946634600E000BF01B5FFF7B7FF0028E5
:100AE00048BF10F1000F01BD4DF808EDFFF7F4FF0E
:100AF0000CBF012000205DF808FB00BF4DF808ED99
:100B0000FFF7EAFF34BF012000205DF808FB00BFBB
:100B10004DF808EDFFF7E0FF94BF012000205DF8DD
:100B200008FB00BF4DF808EDFFF7CEFF94BF012092
:100B300000205DF808FB00BF4DF808EDFFF7C4FF8B
:100B400034BF012000205DF808FB00BF4FEA410CD4
:100B50007FEA6C5C02D150EA013C0AD14FEA430CB7
:100B60007FEA6C5C02D152EA033C02D14FF00000F4
:100B700070474FF0010070474FEA410212F5001232
:100B800015D211D56FF47873B3EB625212D94FEAD4
:100B9000C12343F0004343EA505311F0004F23FABE
:100BA00002F018BF404270474FF00000704750EA13
:100BB000013005D111F0004008BF6FF000407047D0
:100BC0004FF00000704700BF4A0011D212F500122A
:100BD00011D20DD56FF47873B3EB62520ED44FEA95
:100BE000C12343F0004343EA505323FA02F0704715
:100BF0004FF00000704750EA013002D14FF0FF3053
:100C000070474FF0000070474FEA4102B2F1E043F5
:100C100024BFB3F5001CDCF1FE5C0DD901F0004CE3
:100C20004FEAC0024CEA5070B2F1004F40EB830033
:100C300008BF20F00100704711F0804F21D113F15F
:100C40003872BCBF01F00040704741F480114FEA98
:100C50005252C2F11802C2F1200C10FA0CF320FA21
:100C600002F018BF40F001004FEAC1234FEAD3233E
:100C700003FA0CFC40EA0C0023FA02F34FEA4303A8
:100C8000CCE77FEA625307D150EA01331EBF4FF031
:100C9000FE4040F44000704701F0004040F0FE404C
:100CA00040F40000704700BF7BB972B90029BEBF95
:100CB00000204FF0004106E008BF00281CBF6FF085
:100CC00000414FF0FF3001F041B9ADF1080C6DE982
:100CD00004CE002909DB002B1ADB00F083F8DDF8D5
:100CE00004E0DDE9022304B07047404261EB4101BA
:100CF000002B1BDB00F076F8DDF804E0DDE90223D1
:100D000004B0404261EB4101524263EB4303704740
:100D1000524263EB430300F065F8DDF804E0DDE9DF
:100D2000022304B0404261EB41017047524263EB41
:100D3000430300F057F8DDF804E0DDE9022304B0D6
:100D4000524263EB4303704753B94AB9002908BFC5
:100D500000281CBF4FF0FF314FF0FF3001F0F6B814
:100D6000ADF1080C6DE904CE00F03CF8DDF804E0CC
:100D7000DDE9022304B0704738B5002200230446A1
:100D80000D46FFF7BBFE28B920462946BDE838408E
:100D900000F00AB8204605F1004100F005F8404295
:100DA00061EB410138BD00BFD0B50C4B00220646B7
:100DB0000F46FFF731FCFFF707FF0446FFF7B2FBD2
:100DC000074B0022FFF728FC02460B463046394607
:100DD000FFF76AFAFFF7F8FE2146D0BD0000F03DAC
:100DE0000000F0412DE9F047089D04468C46002B99
:100DF00040F083808A42174647D9B2FA82F242B164
:100E0000C2F1200024FA00F09140974040EA010C22
:100E100094404FEA1748230CBCFBF8F61FFA87FEF4
:100E200008FB16C143EA014306FB0EF1994209D9BA
:100E3000FB1806F1FF3080F01981994240F21681CB
:100E4000023E3B445B1AA4B2B3FBF8F008FB10333C
:100E500044EA034400FB0EFEA64509D93C1900F103
:100E6000FF3380F00581A64540F2028102383C4400
:100E700040EA0640A4EB0E0400261DB1D440002336
:100E8000C5E900433146BDE8F08702B9FFDEB2FA9A
:100E900082F2002A50D1CB1B4FEA174E1FFA87F877
:100EA0000126B3FBFEFC210C0EFB1C3341EA03417F
:100EB00008FB0CF38B4207D979180CF1FF3002D2F2
:100EC0008B4200F2E9808446C91AA3B2B1FBFEF05E
:100ED0000EFB101143EA014408FB00F8A04507D9B6
:100EE0003C1900F1FF3302D2A04500F2D980184628
:100EF000A4EB080440EA0C40BFE78B4209D9002D5F
:100F000000F0B1800026C5E9000130463146BDE859
:100F1000F087B3FA83F6002E4AD18B4202D3824285
:100F200000F2B880841A61EB030101208C46002D89
:100F3000A8D0C5E9004CA5E7C2F1200320FA03F6CA
:100F4000974001FA02F04FEA174ED9403043030CA4
:100F5000B1FBFEF61FFA87F80EFB161143EA0143B8
:100F600006FB08F1994204FA02F409D9FB1806F1CC
:100F7000FF3C80F08D80994240F28A80023E3B44E3
:100F80005B1A81B2B3FBFEF00EFB103341EA034162
:100F900000FB08F38B4207D9791800F1FF3C73D2AC
:100FA0008B4271D902383944CB1A40EA064678E7B9
:100FB000C6F1200C03FA06F422FA0CF31C4320FAC3
:100FC0000CF701FA06F34FEA144E21FA0CF11F4315
:100FD0003B0CB1FBFEF91FFA84F80EFB191143EA32
:100FE000014109FB08FA8A4502FA06F200FA06F303
:100FF00008D9611809F1FF3048D28A4546D9A9F1CC
:1010000002092144A1EB0A01BFB2B1FBFEF00EFBC5
:10101000101147EA014700FB08F8B84507D9E7195E
:1010200000F1FF312ED2B8452CD90238274440EACE
:101030000940A7EB0807A0FB02894F45C646494671
:101040001AD317D05DB1B3EB0E0267EB010707FAB5
:101050000CFCF2404CEA0202F740C5E900270026EA
:101060003146BDE8F0872E4628460BE70646E9E6FE
:101070001846FDE64345E5D2B8EB020E69EB0401E4
:101080000138DFE70846D2E760468DE78146B9E7D9
:10109000664675E730464AE7ACF1020C394413E77F
:1010A00002383C4424E700BF03685A004CBF43F0B9
:1010B000004323F000431844704700BF2DE9F84374
:1010C00029B34F1E044615463E464FF0000808EB74
:1010D000060101EBD171491004EBC1094846FFF745
:1010E000E3FF0346C80008308F42204409D0AB42DA
:1010F00009D8FFF7D9FF0138A8420AD201F1010847
:10110000E5E7AB4205D9884501D04E1EDFE74FF039
:1011100000094846BDE8F883012807D0022807D017
:10112000044B00280CBF1846002070470248704747
:1011300002487047DD170008E1170008E5170008AE
:1011400030B5234B83B004468D1E3BB301A928461E
:10115000AFF30080E8B101992A46FFF7AFFF0146DF
:10116000B8B1FFF7A1FF4B68A064012B2BD0002B77
:1011700001F1040023DBFFF797FF0023C4E9130309
:101180000368002B10DBFFF78FFF2061002003B006
:1011900030BD00230920236103B030BD0D490E4846
:1011A000091AC9100191D7E7C3F30360FFF7B4FF31
:1011B0000028206114BF0020092003B030BD0123A6
:1011C000C4E91303DCE7002323610520DFE700BF48
:1011D0000000000044F003088CE203080368DA070B
:1011E00010B5044606D49B0700F1480009D500F06D
:1011F0004BFC2368590709D51A070ED5DB0613D512
:1012000010BD00F039FC23685907F5D404F1D00073
:1012100000F042FC23681A07F0D404F5A87000F02F
:1012200043FC2368DB06EBD404F5E870BDE810400E
:1012300000F07EBC0346006800B11844704700BF50
:1012400009207047704700BF70B504460E46316CE8
:101250002046FFF775FF054688B9336C6361324657
:1012600023692146012098470828F0D0072806D195
:101270002846316CFFF7E6FF301D00F0F1FB28F047
:10128000C1FE00BF2DE9F0470D1D064614460FCDE7
:10129000ADF5727D0DF10C0CACE80F000FCDACE894
:1012A0000F000FCDACE80F0095E80F0002ADF76816
:1012B000D6F818808CE80F0000232B6021E02B6CFF
:1012C00073614FF4F07229467AA828F00DFF336954
:1012D0007AAA314650469847889BCDE90058214666
:1012E0006B648146334632460120B8470446E8B96C
:1012F0004FF4F0727AA9284628F0F6FEB9F1080FEB
:101300001BD1296C3046FFF71BFF09345FFA84FAC2
:1013100081460028D3D0AB6B4AF01001CDE90058CC
:1013200032466B6401203346B84708B14FF00909D3
:1013300048460DF5727DBDE8F087B9F1070FF5D18C
:101340002046296CFFF77EFF03A800F089FB00BF51
:10135000406C7047F0B5CB6B0B640E1D0F46054615
:101360000FCEF9B001AC0FC40FCE0FC40FCE0FC417
:1013700096E80F004FF0FF3684E80F00009606E075
:101380002B696A46294698470828044608D11099CF
:101390002846FFF7D5FE0028F2D0092079B0F0BD2D
:1013A0006846FFF71BFF062CF7D139462846FFF7A2
:1013B0004BFF00BF30B4DD6BC160826119461D6414
:1013C000002230BC5EE700BF70B5C66843690B649D
:1013D000AEB903690A4604460D4601460220984705
:1013E000072805D008280FD129462046FFF72CFFF3
:1013F0003046296CFFF726FF281D00F031FB012243
:10140000FFF740FF28F0FEFD28F0FCFDC2681AB18E
:10141000CA6B0A64002235E79CE700BF704700BF33
:10142000836801460BB1012018477047012912D08B
:1014300009D873B90F2A0CD800EB820218465368FA
:10144000009A136070470339012994BF01200220DC
:101450007047022070470846704700BF10B584B03F
:10146000002303AC0A4600941946FFF7DFFF0398F8
:1014700004B010BD012912D009D873B90F2A0CD8B5
:1014800000EB8200009A12684260184670470339E8
:10149000012994BF012002207047022070470846AE
:1014A000704700BF10B584B0002303AC03920094D2
:1014B0000A461946FFF7DEFF04B010BDF0B5D36B46
:1014C0001364151D8C4606460FCDADF50F7D17AC88
:1014D0000FC40FCD0FC40FCD0FC495E80F004FF010
:1014E000FF3784E80F006546169710E0FFF7DAFF34
:1014F000294616A8B047034616AA6946082083B9AC
:10150000049B9847052804460CD0092809D0269941
:101510006846FFF715FE03466A460C2116A8002B05
:10152000E4D0092416A8FFF759FE20460DF50F7DDB
:10153000F0BD00BF2DE9F04FCC6C89B00D4654F8DA
:10154000041B0694174600F003081E46002B79D0B2
:101550000B0CDAB209048DF81D30022304EB82046F
:1015600005918DF81C302B6DB8F1020F08BFAC6BE4
:1015700013F001030CD0384605A900F073FB18B92D
:10158000082009B0BDE8F08F092009B0BDE8F08F50
:10159000D4F800A0BAF1000FEDD0019300F00803D9
:1015A0000293022E4AD0B4F800A0B4F8029004349A
:1015B000AA6C29F0010B0F2138469344FFF74EFF28
:1015C000834539D82AF001025A44824294BF002050
:1015D00001204FEA490303F002030AF0010A43EA3B
:1015E0000A03012B49D0022B32D0002BCCD1B8F109
:1015F000000F02D0002840F0CD800434D4F800A0C1
:10160000BAF1000FCDD105A9384600F02BFB002818
:10161000BAD1019B002BB3D00F213846FFF71EFF34
:101620000E2102463846FFF73DFF38466A4A0F2131
:10163000FFF738FF0720A8E70020CAE7D4F8049096
:101640000834B5E7090203230591ADF81C308AE799
:10165000236823F0004BB8F1000F45D128B1029A5E
:10166000002A5CD0BBF1000F74D0002B00DA0434E8
:101670000BF1010B04EB8B04C0E7B8F1000F19D19B
:10168000B0B1D4E90023991C4FEAD2723FF47CAF89
:1016900005F158010133049100F09080201DFFF7FF
:1016A000C9FD04AB0146284627F02AFC00285BD17F
:1016B0000834A3E70D213846D5F82090FFF7CEFE79
:1016C0008145F5D1AB6A9C42F2D12046FFF7ECFC94
:1016D0000F2102463846FFF7E5FE38462A4600212C
:1016E000FFF7E0FE072050E70D213846D5F820909F
:1016F000FFF7B4FE814501D02368B6E7AB6A9C4290
:10170000FAD104220021C5E90B12A318C5F828B0AC
:101710006B6323688B4259DB01230193A8E705F132
:101720005803CDF80C8004F1040AB04691461E46D9
:101730000DE00496FFF77EFD04AB0146002228462B
:1017400027F0DEFB09F101090AF1040AE8B9D945DD
:101750005046EED138460D21FFF780FE049B2862EB
:10176000C5E90934062010E781460D213846FFF708
:1017700075FEB9F1020F286225D12B46049A43F871
:101780002C2F6B62AC620620FFE646462368DDF82C
:101790000C806AE72046FFF787FC04340246AC63FE
:1017A0002846144627F00AFC00283FF4EDAE3846E0
:1017B00022460F21FFF776FE0720E6E638460D2188
:1017C000FFF74CFE2862049B6B62DBE70BF1010024
:1017D00004EB80007AE700BF759C02080023A9E6AD
:1017E0000123A7E60223A5E62DE9F0430646C3B090
:1017F00015461C46042900F2B980DFE801F09A532F
:10180000B7290300002C40F0B180102A00F2AE800E
:101810000368D80600F1F38020AF384600F092F953
:10182000B06B0023012404FA03F22A42014604D0DB
:1018300051F8042B47F8232008460133042BF2D13A
:10184000B063384600F074F9002043B0BDE8F0837F
:10185000032C40F08B8094B204EB1243102B4FEA20
:10186000124500F2838003681F0700F1D08020AF8B
:10187000384600F03BF907EBC501B56B54B10B4698
:10188000E81A01EBC401E4001A5843F8042B8B4218
:10189000FAD125443846B56300F006F9002043B07C
:1018A000BDE8F083012C4FEA124895B25AD0052CBE
:1018B0005CD108EB0509B9F1200F57D8B8F10F0F2B
:1018C00077D9A946002D40F08880B36B6DB320AF67
:1018D0004FF0000907EBC807043F03EBC50553F8B9
:1018E000041B47F8041FAB42F9D1B9F1000F0FD028
:1018F0006F464146102938BF102107EBC1018439DA
:1019000003EBC90553F8040B41F8040FAB42F9D1BE
:10191000012C00F08480B8F10F0FB56345D9B9F1FF
:10192000000F02D0684600F0B7F8002043B0BDE8D1
:10193000F083DCB9876B2346012094B206F1040CD6
:1019400000FA03F22242394604D051F8042B4CF835
:1019500023200F460133102BF2D115F40050E4D1AF
:10196000B76304E008EB0503102B03D9022043B052
:10197000BDE8F083B8F10F0FF8D83368DA0706D561
:10198000304623F0030340F8483B00F079F820AFDD
:10199000384600F075F8B36B002D99D11D4604351B
:1019A000B563384600F068F8BFE720A800F06CF88F
:1019B000B5E7B9F1100F40D9A9F110093368D9077B
:1019C00008D523F00103304643F0020340F8483BBA
:1019D00000F05EF8B9F1000F32D033685A0720D416
:1019E000B8F10F0F25D96F463846C8F1100500F041
:1019F00057F8002DB36B7FF77CAF20AF6AE723F079
:101A00001003336006F5E87000F09CF804E723F05B
:101A10000803036000F5A87000F068F827E720AF1E
:101A2000BDE7304623F0040340F8D03B00F038F81F
:101A3000D6E720A800F02CF8D5E74FF00009BDE765
:101A4000B8F10F0F3FF641AF20AF384600F020F855
:101A5000B36B002D7FF43CAF384600F015F864E717
:101A600000F1340191E838009C46A6464CF8045D2C
:101A700090E8FF0FE54600BD90EC210B704700BFDA
:101A800080EC210B704700BF90EC200B704700BF2B
:101A900080EC200B704700BFD0EC200B704700BFDC
:101AA000C0EC200B704700BFF0EC0201F0EC02111B
:101AB000F0EC0221F0EC0231F0EC0241F0EC0251CA
:101AC000F0EC0261F0EC0271F0EC0281F0EC0291BA
:101AD000F0EC02A1F0EC02B1F0EC02C1F0EC02D1AA
:101AE000F0EC02E1F0EC02F1704700BFE0EC020123
:101AF000E0EC0211E0EC0221E0EC0231E0EC02410A
:101B0000E0EC0251E0EC0261E0EC0271E0EC0281F9
:101B1000E0EC0291E0EC02A1E0EC02B1E0EC02C1E9
:101B2000E0EC02D1E0EC02E1E0EC02F1704700BF32
:101B3000B0FC0181B0FC0191B0FC01A1B0FC01B18D
:101B4000704700BFA0FC0181A0FC0191A0FC01A195
:101B5000A0FC01B1704700BFEC4600B52DE9005074
:101B60002DE9FF1F4FF000032DE90C0001A9FFF73D
:101B7000F1FBDDF840E012B0704700BFEC4600B565
:101B80002DE900502DE9FF1F4FF000032DE90C0057
:101B900001A9FFF719FCDDF840E012B0704700BF63
:101BA000EC4600B52DE900502DE9FF1F4FF0000372
:101BB0002DE90C0001A9FFF729FCDDF840E012B087
:101BC000704700BFEC4600B52DE900502DE9FF1F1E
:101BD0004FF000032DE90C0001ABFFF7EBFBDDF844
:101BE00040E012B0704700BFEC4600B52DE9005050
:101BF0002DE9FF1F4FF000032DE90C0001AAFFF7AC
:101C00005DFCDDF840E012B0704700BF027A7AB99F
:101C1000437AA3B14268013B10B4437213680321B5
:101C2000141D01721A024460026010BC180E704745
:101C30000368013A02721A020260180E7047B0205F
:101C4000704700BF00B585B003AA00230092194673
:101C50000C22FFF7EBFB039805B05DF804FB00BF17
:101C6000F0E700BF2DE9F043054685B00E464FF082
:101C700000083046FFF7CAFFB028044600F0B280E3
:101C8000070620D500F0F003802B4DD0902B36D0E6
:101C9000A02B60D0B02B74D0C02B00F08B8000F054
:101CA000F803D02B0BD100F00702013242F40022DE
:101CB000052301212846FFF797FD0028D9D00920E8
:101CC00005B0BDE8F0830DF10C090023194687002B
:101CD000CDF800900D222846FFF7A8FBFFB2039B2A
:101CE000CDF80090043760064CBFDF1BFF180023BF
:101CF00019460D2228460397FFF7BCFBB9E700F011
:101D00000D030D2BDBD003AF002300F00F021946AB
:101D100000972846FFF78AFB0023009719460D22FB
:101D20002846FFF7A7FBA4E73046FFF76FFF240222
:101D30002043B0F5004FC2D004010023A2B21946DF
:101D40002846FFF751FD0028B9D114F4004F18BF01
:101D50004FF001088DE7C24302F007034FF47F62A2
:101D60001A41010702F47F624FF0000348BF42F4BA
:101D7000804219462846FFF737FD00283FF479AF27
:101D80009DE7B12833D0B22800F08B80B32839D03A
:101D900000F0FC03B42B92D000F0070201320123C3
:101DA00042F4002219462846FFF71EFD00283FF4A2
:101DB00060AF84E7C62842D0C7284CD000F0F803B3
:101DC000C02B5BD0C82860D0C9287FF478AF3046DC
:101DD000FFF71CFF020300F00F0002F47022013035
:101DE000024365E7B8F1000F18D0002068E73046DD
:101DF000FFF70CFF024600283FF461AF10F0F0033C
:101E0000D0D05CE73046FFF701FF010300F00F0080
:101E100001F47021421C01230A43C3E703AC43468B
:101E20000E22414600942846FFF700FB0094284606
:101E300043460F224146FFF71DFB404640E7304630
:101E4000FFF7E4FE010300F00F0001F47021421CD3
:101E500003230A43A6E73046FFF7D8FE02460028D0
:101E60003FF42DAF10F0F0037FF429AF0421284692
:101E7000FFF7BAFC00283FF4FCAE20E700F00F02A9
:101E80000132032342F420228CE73046FFF7BEFEE6
:101E900000F0F00200F00F031032013343EA023287
:101EA00006E700230DF10C090D221946CDF800902C
:101EB0002846FFF7BBFA3046FFF7A8FE02064FF0B0
:101EC00002070CD5039B00F07F00B8400344304666
:101ED0000393FFF79BFE030607F10707F2D4039B6A
:101EE000CDF8009000F07F0403F50172BC400023A0
:101EF000144419460D2228460394FFF7BBFAB8E6AE
:101F000010B5C26C84B0536803248DF80C401B02DA
:101F100002F108040846D279019301A902948DF8D0
:101F20000D20FFF79FFE04B010BD00BF08B5FFF7FE
:101F300097FE806C08BD00BF08B5FFF791FEC06C2E
:101F4000C379023300EB830008BD00BF704700BFB8
:101F5000F1EE103A43F08073E1EE103A704700BFA3
:101F6000074AD36823F4E0631B041B0C000200F44F
:101F7000E060034343F0BF6343F40033D360704732
:101F800000ED00E030B4174BDB68C3F30223C3F16C
:101F90000704042C28BF04241D1D062D18D9033B5B
:101FA0004FF0FF3505FA04F421EA0401994005FADF
:101FB00003F322EA0303194300280BDB0901C9B22A
:101FC00000F1604000F5614080F8001330BC7047BC
:101FD0000023E5E700F00F000901C9B2024B1954D4
:101FE000F4E700BF00ED00E014ED00E000F01F0298
:101FF000400901239340024A42F82030704700BF55
:1020000000E100E000F01F0240090123934020306E
:10201000014A42F82030704700E100E00138B0F199
:10202000807F0AD2064B5860064AF02182F82310BE
:102030000020986007221A6070470120704700BF97
:1020400010E000E000ED00E0042805D0054A136828
:1020500023F0040313607047024A136843F004033B
:102060001360704710E000E010B513460222C0F87C
:10207000F4218361C3610A46002102F0F1FD0020D2
:1020800010BD08B513460A46002102F0E9FD002004
:1020900008BD10B513460322C0F8F421C0F808317A
:1020A000C0F80C310A46002102F0E9FD002010BD05
:1020B00008B513460A46002102F0E1FD002008BDE4
:1020C00008B50423C0F8F43100231A46194602F07B
:1020D000C7FD002008BD08B50523C0F8F431002372
:1020E0001A46194602F0CBFD002008BD10B588B095
:1020F000014600222D20FFF745FF2D20FFF776FF38
:1021000000240194144B1A6C42F480721A641B6C04
:1021100003F480730193019B02A903A805F040FE1C
:1021200005F01EFE43000D48A0FB03239B0C013B62
:102130000B480C4A026040F2E732C260436004611F
:10214000846008F00FFE10B1012008B010BD0448F3
:1021500008F055FCF9E700BF0038024083DE1B435E
:1021600084C5002000200040002800F0A18038B580
:10217000044690F82030D3B12268136823F002039C
:10218000136004F0EDFF054623685A6812F0020F51
:1021900010D004F0E5FF401B0A28F5D9636A43F428
:1021A00000336362052384F82030012038BD05F038
:1021B000A9FAE1E71A6842F001021A6004F0D0FFC0
:1021C000054623685A6812F0010F0DD104F0C8FFCC
:1021D000401B0A28F5D9636A43F400336362052380
:1021E00084F820300120E1E7227E012A3DD01A68E0
:1021F00022F080021A60637E012B3BD022681368B4
:1022000023F040031360A37E012B39D022681368AA
:1022100023F020031360E37E012B37D0226813687C
:1022200043F010031360237F012B35D0226813681D
:1022300023F008031360637F012B33D022681368F7
:1022400023F004031360A368E26813432269134375
:10225000626913436268013A21681343CB6100202D
:102260006062012384F82030A0E71A6842F08002FF
:102270001A60C0E72268136843F040031360C2E7A6
:102280002268136843F020031360C4E722681368D0
:1022900023F010031360C6E72268136843F00803B5
:1022A0001360C8E72268136843F004031360CAE7A9
:1022B0000120704790F82030DBB2012B0AD090F853
:1022C0002030DBB2022B05D0436A43F48023436203
:1022D0000120704770B4434BD3F8002242F0010252
:1022E000C3F80022D3F8002222F47C52C3F8002263
:1022F000D3F80022486A42EA0022C3F800224A6961
:10230000012000FA02F2D3F81C02D44320EA0200B2
:10231000C3F81C02CB69B3B9324BD3F80C0220408E
:10232000C3F80C02CE688D88486945EA06454830F6
:1023300043F830508E6808884D6940EA06404835B9
:1023400003EBC5035860CB69012B1DD08B69002BB3
:1023500032D12448D0F804322340C0F804320B694B
:102360008BBB204BD3F814020440C3F814420B6A11
:10237000012B2FD01B4AD2F8003223F00103C2F800
:102380000032002070BC7047164BD3F80C0210438B
:10239000C3F80C020E688D88486945EA0645483046
:1023A00043F830508E6888894D6940EA06404835C8
:1023B00003EBC5035860C9E70A48D0F80432134359
:1023C000C0F80432CBE70748D0F814321343C0F802
:1023D0001432CCE70349D1F81C321A43C1F81C224D
:1023E000C8E700BF0064004070B5044690F8205074
:1023F000EDB2012D06D0436A43F400234362012568
:10240000284670BD022380F820300268136823F04C
:102410000103136004F0A4FE064623685B6813F012
:10242000010F0CD004F09CFE831B0A2BF5D9636AC4
:1024300043F400336362052384F82030E0E700258D
:102440006562DDE738B5044690F82030DBB2022B38
:1024500005D0436A43F480134362012038BD02680B
:10246000136843F00103136004F07AFE0546236805
:102470005A6812F0010F0DD104F072FE431B0A2BB3
:10248000F5D9636A43F400336362052384F820308E
:102490000120E3E71A6822F002021A60012384F89F
:1024A00020300020DAE770B490F82040E4B2012C2C
:1024B00004D090F82040E4B2022C69D10468A568E9
:1024C00015F0806F07D1A56815F0006F03D1A568DE
:1024D00015F0805F56D0A468C4F301640125A540BF
:1024E0001D608B68002B3AD10E68CB68056843EA03
:1024F000465604F118031B01EE5003680D6904F100
:10250000180603EB06135D600B7D012B32D0D179E9
:1025100093791B0443EA0163517943EA0123157956
:1025200001682B4301EB0411C1F88C31D178937809
:102530001B0443EA0163517843EA012311780268DE
:102540000B4302EB0412C2F88831026818342401EC
:10255000135943F001031351002070BC70474D68BC
:1025600043EAC503CD6806682B4304F118052D0125
:102570007351C2E7036803EB0613596841F4807195
:102580005960C4E7436A43F4001343620120E4E75F
:10259000436A43F4802343620120DEE790F8203051
:1025A000DBB2012B06D090F82030DBB2022B01D039
:1025B000002070470368986810F0806000D0012008
:1025C0009A6812F0006F00D001309B6813F0805FB2
:1025D000EFD00130704730B490F82040E4B2012CC5
:1025E00005D090F82040E4B2022C40F0928051B91E
:1025F0000468E46814F0030F12D1436A43F4001333
:102600004362012073E001290AD10468246914F0AF
:10261000030F05D1436A43F400134362012066E0CF
:10262000056801F11B0424012C5904F00404946092
:10263000002C5ED1056801F11B0424012C59640DA6
:102640001460056801F11B0424012D59C5F34005F0
:10265000D560056825446D6805F00F0515610568AE
:1026600025446D68C5F30725956105682C446468A9
:10267000240C5461026802EB0112D2F8B8211A70DE
:10268000026802EB0112D2F8B821120A5A700268ED
:1026900002EB0112D2F8B821120C9A70026802EB18
:1026A0000112D2F8B821120EDA70026802EB0112A0
:1026B000D2F8BC211A71026802EB0112D2F8BC21D7
:1026C000120A5A71026802EB0112D2F8BC21120CF4
:1026D0009A71026802EB0112D2F8BC21120EDA7173
:1026E00079B90268D36843F02003D360002030BC7E
:1026F0007047056801F11B0424012C59E40854605B
:102700009FE70129F2D10268136943F020031361A6
:10271000ECE7436A43F4802343620120E7E790F843
:102720002030DBB2012B06D090F82030DBB2022B38
:1027300001D00020704721B90368D86800F0030079
:1027400070470368186900F00300704790F8203064
:10275000DBB2012B0AD090F82030DBB2022B05D07F
:10276000436A43F48023436201207047026853693F
:10277000194351610020704790F82030DBB2012BE3
:102780000AD090F82030DBB2022B05D0436A43F424
:1027900080234362012070470268536923EA0101E4
:1027A0005161002070472DE9F84F054603685C69C8
:1027B000D3F804809F68D3F80CB0D3F810A0D3F8F6
:1027C000189014F001063BD017F0010616D0012234
:1027D0009A6017F0020F08D117F0040F0CD117F010
:1027E000080606D04FF4805608E025F087FF002643
:1027F00004E025F086FF01E04FF4006617F4807FC7
:102800000DD02B684FF480729A6017F4007F40F06F
:10281000868017F4806F00F0868046F4005617F427
:10282000803F0DD02B684FF480329A6017F4003F40
:1028300040F0838017F4802F00F0838046F4004638
:1028400014F0080F07D01BF0100F04D046F40076E8
:102850002B681022DA6014F0040F02D01BF0080F6E
:1028600079D114F0020F04D02B68DB6813F0030F4A
:1028700078D114F0400F07D01AF0100F04D046F4AE
:1028800080662B6810221A6114F0200F02D01AF013
:10289000080F6BD114F0100F04D02B681B6913F0D4
:1028A000030F6AD114F4003F02D018F0100F68D162
:1028B00014F4803F02D018F0080F69D114F4004FCF
:1028C0007AD018F0040F74D014F4807F04D019F07B
:1028D000010F01D046F0010614F4007F04D019F076
:1028E000020F01D046F0020614F4806F04D019F0F4
:1028F000040F01D046F0040614F4006F59D019F00B
:10290000700956D0B9F1400F65D058D8B9F1200FF1
:102910005ED0B9F1300F42D146F0200644E028469F
:1029200025F0EDFE7BE717F4006F02D046F48046F9
:1029300075E7284625F0E6FE71E7284625F0E0FE1B
:102940007EE717F4002F02D046F4803678E7284659
:1029500025F0D9FE74E72B680822DA60284625F0B6
:10296000DFFE7EE7284625F0CFFE82E72B680822AF
:102970001A61284625F0D6FE8CE7284625F0D1FEC0
:1029800090E72B6810225A60284625F0CCFE8FE78E
:102990002B6808225A60284625F0C6FE8EE7B9F15A
:1029A000100F01D146F008062A68936923F07003DE
:1029B00093612B6804225A609EB9BDE8F88FB9F183
:1029C000500F0BD0B9F1600FEED146F48076EBE7F3
:1029D00046F01006E8E746F04006E5E746F08006D8
:1029E000E2E76B6A1E436E62284625F09EFEE4E72E
:1029F000406A704790F82030DBB2012B0AD090F883
:102A00002030DBB2022B05D0436A43F480234362BB
:102A100001207047002343621846704700230133AA
:102A20000C4A934211D80269002AF8DA036943F08C
:102A30000103036100230133064A934207D8026968
:102A400012F0010FF7D100207047032070470320D8
:102A5000704700BF400D030084B010B5044603A8C2
:102A600080E80E00089B012B20D1A36B23F4803358
:102A7000A363E36823F4840323F04003E360E36883
:102A800023F44013E3600F9B012B0AD02046FFF78D
:102A9000C5FF069B012B14D00020BDE8104004B0F8
:102AA0007047E36843F48013E360EFE7E36843F0C3
:102AB0004003E3602046FFF7B1FF4FF48033A36388
:102AC000E7E7A36843F00603A360A36843F020038D
:102AD000A360E1E7836843F001038360002070474F
:102AE000836823F0010383600020704708B5C36842
:102AF00023F0C043C360012905D041B9C36843F046
:102B00008043C36003E0C36843F00053C3603220D6
:102B100004F02CFB002008BD890141F02001016177
:102B200000230133054A934205D8026912F0200FB1
:102B3000F7D1002070470320704700BF400D03000D
:102B40001023036100230133054A934205D802692B
:102B500012F0100FF7D1002070470320704700BF1C
:102B6000400D0300D0F800381943C0F800180020C9
:102B70007047000084B02DE97841044607A880E83A
:102B80000E00DDF84480B8F1000F17D1A36B43F4B9
:102B90000013A36325460023C4F8003E04F5006635
:102BA000D4F80038C4F800380C9B012B10D1099BD5
:102BB0004BB900212046FFF7D5FF0DE0A36B43F48E
:102BC0000023A363E6E701212046FFF7CBFF03E0E4
:102BD00003212046FFF7C6FF10212046FFF79CFF88
:102BE0002046FFF7ADFF0023336173614FF0FF32E2
:102BF000B261F36108E04FF09040C2F80009002292
:102C00000A61FF228A600133079999420BD905EBCB
:102C1000431202F51061D2F800090028EBDB002016
:102C2000C2F80009EBE7002308E04FF0904CC2F82F
:102C300000CB00220261FF228260013399420DD94C
:102C400005EB431202F53060D2F800CBBCF1000F67
:102C5000EBDB4FF0000CC2F800CBEAE7336923F45A
:102C6000807333610A9B012B1BD00022A2616FF09D
:102C7000804262611BB9A36943F01003A361A2699A
:102C8000104B1343A3610D9B1BB1A36943F00803D1
:102C9000A361B8F1010F0ED00020BDE8784104B067
:102CA0007047094A3263326B42F4803242F00302C9
:102CB0003263326BD9E7A36943F0804343F00403E6
:102CC000A361E9E700383C8000018000D0F80838B3
:102CD00000F5006013F0060F10D0836803F00603C0
:102CE000022B0DD0836803F00603062B0AD08368FD
:102CF00003F00603042B07D0002070470020704724
:102D000003207047032070470220704730B44B788F
:102D1000012B22D0D0F81C380D780122AA4043EABA
:102D20000243C0F81C380B7800EB4310D0F8003B8E
:102D300013F4004F0ED1D0F8003B8A68C2F30A02A8
:102D4000C97842EA8142134343F0805343F400437D
:102D5000C0F8003B002030BC7047D0F81C280D782C
:102D6000AB409BB21343C0F81C380C7800EB441006
:102D7000D0F8003913F4004FECD1D0F800398A684C
:102D8000C2F30A02C97842EA814242EA84521343FA
:102D900043F0805343F40043C0F80039DAE7000001
:102DA00038B505460C464B78012B36D00B780146DA
:102DB00000EB4313D3F8002B22F40042C3F8002B9E
:102DC000237800EB43134FF00062C3F8002B237805
:102DD00000EB43134FF08042C3F8002B0022013276
:102DE0002B4B9A4251D8237801EB431303F5306300
:102DF0009B6813F0100FF2D1D5F8043843F48063C8
:102E0000C5F80438D5F81C38217801228A4023EA15
:102E10000243C5F81C38002038BD0B78014600EB92
:102E20004313D3F8002922F40042C3F80029237881
:102E300000EB43134FF00062C3F80029237800EB46
:102E400043134FF08042C3F8002900220132104B97
:102E50009A4218D8237801EB431303F510639B685B
:102E600013F0804FF2D110212846FFF755FED5F818
:102E70001C28217801238B409BB222EA0303C5F86A
:102E80001C380020C8E70320C6E70320C4E700BFC2
:102E9000400D030030B44B78012B39D00B7800EB98
:102EA0004313D3F8104BE40CE404C3F8104B0B7835
:102EB00000EB4313D3F8104B24F0FF5424F4C01458
:102EC000C3F8104B4B690BB18B684B610B7800EB6F
:102ED0004313D3F8104B44F40024C3F8104B0B7881
:102EE00000EB4313D3F8104B8D68C5F312052C4348
:102EF000C3F8104B012A76D00B7800EB4310D0F8C2
:102F0000003B43F00443C0F8003B002030BC704756
:102F10004B699BBB0B7800EB4313D3F8104924F0AB
:102F2000FF5424F4C014C3F810490B7800EB43138A
:102F3000D3F8104944F40024C3F810490B7800EB8F
:102F40004313D3F81049E40CE404C3F810490B7898
:102F500000EB4313D3F8004944F00444C3F800499C
:102F6000012A39D04B69002BCFD0D0F834380978FA
:102F700001228A401343C0F83438C6E70B7800EBCF
:102F80004313D3F81049E40CE404C3F810490B7858
:102F900000EB4313D3F8104924F0FF5424F4C01479
:102FA000C3F810494C698B689C4200D94B610B787F
:102FB00000EB4313D3F8104944F40024C3F810493C
:102FC0000B7800EB4313D3F810494D69C5F3120594
:102FD0002C43C3F81049BAE70B7800EB43100B6998
:102FE000C0F8143991E7CA680B7800EB4313C3F8B3
:102FF000142B81E770B49DF80C4064B903339D082D
:10300000AC4208D200EB023303F5805351F8046B55
:103010001E600134F4E7002070BC704770B582B0C8
:103020004B78012B3ED00B7800EB4313D3F8104BB9
:10303000E40CE404C3F8104B0B7800EB4313D3F813
:10304000104B24F0FF5424F4C014C3F8104B4B6908
:10305000002B40F0D3800B7800EB4313D3F8104BD8
:103060008D68C5F312052C43C3F8104B0B7800EBA9
:103070004313D3F8104B44F40024C3F8104B012A37
:1030800000F0DB80CB78012B00F0DE800B7800EBCA
:103090004310D0F8003B43F00443C0F8003B00204D
:1030A00002B070BD4B696BBB0B7800EB4313D3F8D8
:1030B000104924F0FF5424F4C014C3F810490B78CD
:1030C00000EB4313D3F8104944F40024C3F810492B
:1030D0000B7800EB4313D3F81049E40CE404C3F875
:1030E0001049012A54D0CB78012B57D04B69002BC3
:1030F00054D0D0F834380E780124B4402343C0F8BB
:1031000034384BE00B7800EB4313D3F81049E40C50
:10311000E404C3F810490B7800EB4313D3F81049CB
:1031200024F0FF5424F4C014C3F810490C7800EBC9
:103130004414D4F810594B698E683344013BB3FBF7
:10314000F6F34E4E06EAC3432B43C4F810390B780E
:1031500000EB4313D3F810494D69C5F312052C4316
:10316000C3F81049CB78012BBBD10B7800EB43138C
:10317000D3F8104924F0C044C3F810490B7800EB91
:103180004313D3F8104944F00054C3F81049A8E79A
:103190000B7800EB43130C69C3F81449CB78012B6F
:1031A00013D00B7800EB4313D3F8004944F00444E8
:1031B000C3F80049CB78012B7FF471AF00928B8A62
:1031C0000A78C968FFF716FF69E7D0F8083813F4E2
:1031D000807F09D10B7800EB4313D3F8004944F00A
:1031E0000054C3F80049DCE70B7800EB4313D3F835
:1031F000004944F08054C3F80049D2E78C68234466
:10320000013BB3FBF4F30C7800EB4414D4F8105BEF
:103210001A4E06EAC3463543C4F8105B0C7800EB3F
:103220004414D4F8106B8D689BB205FB03F3C3F311
:1032300012033343C4F8103B21E7CA680B7800EB54
:103240004313C3F8142B1DE7D0F8083813F4807F1C
:1032500009D10B7800EB4313D3F8002B42F0005256
:10326000C3F8002B12E70B7800EB4313D3F8002BC5
:1032700042F08052C3F8002B08E700BF0000F81F9F
:1032800010B404460846D11C890800238B4206D29C
:1032900004F58052126840F8042B0133F6E75DF81C
:1032A000044B70474B78012B17D00B7800EB43137E
:1032B000D3F8002B002A05DBD3F8002B22F0804244
:1032C000C3F8002B0B7800EB4310D0F8003B43F41D
:1032D0000013C0F8003B002070470B7800EB43134D
:1032E000D3F80029002A05DBD3F8002922F0804218
:1032F000C3F800290B7800EB4310D0F8003943F4F1
:103300000013C0F80039E6E74B78012B0FD00B789B
:1033100000EB4313D3F8002B22F40012C3F8002B68
:10332000CB78023BDBB2012B19D9002070470B7818
:1033300000EB4313D3F8002922F40012C3F800294C
:10334000CB78023BDBB2012BEFD80B7800EB4310BC
:10335000D0F8003943F08053C0F80039E5E70B7826
:1033600000EB4310D0F8003B43F08053C0F8003B23
:10337000DBE7D0F8003823F4FE63C0F80038D0F85B
:103380000038090101F4FE611943C0F8001800205B
:10339000704708B5D0F8043823F00203C0F80438A9
:1033A000032003F0E3FE002008BD08B5D0F8043880
:1033B00043F00203C0F80438032003F0D7FE0020D6
:1033C00008BD4269806910407047D0F8183800F590
:1033D0000060C0691840000C7047D0F8183800F53C
:1033E0000060C069184080B2704700EB4111D1F80D
:1033F000082B00F5006040691040704710B4D0F809
:103400001048D0F83438CB40DB01DBB2234300EB6B
:10341000411000F51060806818405DF8044B70475B
:10342000406900F001007047D0F8003923F4FF63D1
:1034300023F00703C0F8003900F500639A6802F032
:103440000602042A05D05A6842F480725A600020AD
:103450007047D0F8002942F00302C0F80029F2E7D3
:1034600010B40024C0F8104BD0F8104B44F40024E2
:10347000C0F8104BD0F8104B44F01804C0F8104BB3
:10348000D0F8104B44F0C044C0F8104B012903D0D1
:1034900000205DF8044B7047C0F8142B4FF08023D8
:1034A000C0F8003BF4E700B589B070230193012315
:1034B00002930023039304930593069307930C222E
:1034C00001A907F01BFD09B05DF804FB00B58DB044
:1034D0001748184B03600023436083604FF6FF7268
:1034E000C2600361032203920493012105910693B4
:1034F00004220792089309910A930B9203A907F0FB
:103500007FFC50B900230193029301A9084800F001
:1035100097FB38B90DB05DF804FBEA21064801F0CD
:103520005FF9EFE7F121044801F05AF9F2E700BF33
:10353000B0C6002000040040F8F3020800B58DB0CA
:103540001848194B03600023436083604FF6FF72F5
:10355000C260036103220392049301210591069343
:1035600004220792089309910A930B9203A907F08A
:1035700047FC50B900230193029301A9094800F0C8
:103580005FFB40B90DB05DF804FB40F20B1107483A
:1035900001F026F9EEE74FF48971044801F020F9B3
:1035A000F0E700BFFCC5002000080040F8F3020867
:1035B00008B50A480A4B036000234360836042F663
:1035C0000312C260036107F0CDFB00B908BD40F2F1
:1035D0008711044801F004F9F8E700BFC0C50020D6
:1035E000001C0040F8F3020800B583B00368184AD5
:1035F000934205D0174A934216D003B05DF804FBFE
:1036000000210091144B5A6C42F001025A645B6C29
:1036100003F001030093009B0A461920FEF7B2FC59
:103620001920FEF7E3FCE8E7002101910A4B1A6C30
:1036300042F080021A641B6C03F080030193019B2B
:103640000A462C20FEF79EFC2C20FEF7CFFCD4E788
:1036500000000140001C00400038024010B584B05A
:103660000368B3F1804F07D0224A934211D0224A17
:10367000934222D004B010BD002301931F4B1A6C5B
:1036800042F001021A641B6C03F001030193019BD9
:10369000F0E700220292194B196C41F008011964FD
:1036A0001B6C03F008030293029B05213220FEF7F6
:1036B00069FC3220FEF79AFCDCE7002403940F4BF0
:1036C0005A6C42F002025A645B6C03F002030393EB
:1036D000039B224621462C20FEF754FC2C20FEF7AB
:1036E00085FC224621462D20FEF74CFC2D20FEF7BE
:1036F0007DFCBFE7000C00400004014000380240A0
:1037000000B589B003681D4A934205D01C4A934214
:103710001BD009B05DF804FB0023019302F50D32C4
:10372000116C41F002011164126C02F0020201926C
:10373000019A302203920222049205930693079283
:1037400003A9104807F076FFE3E70023029302F590
:103750000C32116C41F004011164126C02F004028D
:103760000292029AC02203920222049205930693C7
:10377000079203A9034807F05DFFCAE70004004071
:10378000000800400004024070B586B00368334A68
:1037900093420AD0B3F1804F21D0314A93422DD0C9
:1037A000304A934237D006B070BD4FF46043019366
:1037B000022602960024039404940125059501A98C
:1037C000294807F037FF4FF4E06301930296039412
:1037D0000494059501A9254807F02CFFE3E74FF471
:1037E0004063019302230293002303930493012374
:1037F000059301A91C4807F01DFFD4E70C23019392
:1038000002230293002203920492059301A9174810
:1038100007F010FFC7E780230193022602960024D9
:10382000039404940325059501A9104807F002FFAD
:103830000195029603940494059501A90A4807F09E
:10384000F9FE4FF4E07301930296039404940595F6
:1038500001A9074807F0EEFEA5E700BF0000014000
:10386000000C00400004014000040240000002403F
:103870000008024000B595B04F48504B036000234C
:1038800043606022826040F6AC52C2600361022352
:10389000436107F067FA00285CD14FF4805310931E
:1038A00010A9454807F0B8F8002858D1424807F059
:1038B0008DFA002858D1404807F06EFA002858D1F8
:1038C00020230E9300230F930EA93B4800F0B8F974
:1038D000002853D1702307930022089209920A927C
:1038E0000B920C920D9207A9334807F036FB002883
:1038F00049D1042207A9304807F02FFB002847D1FF
:10390000082207A92C4807F028FB002845D10023EE
:1039100007930C2207A9284807F0F0FA002841D1A4
:103920004FF4006300934FF48063019300230293EC
:103930001422039204934FF40052059206936946B1
:103940001D4800F0A6F990BB1B48FFF71DFF15B0FE
:103950005DF804FB65211A4800F042FF9DE76B21EA
:10396000174800F03DFFA1E77021154800F038FF2F
:10397000A1E77521124800F033FFA1E77C21104830
:1039800000F02EFFA6E788210D4800F029FFB0E7E0
:103990008D210B4800F024FFB2E79221084800F087
:1039A0001FFFB4E79821064800F01AFFB8E7A421EA
:1039B000034800F015FFC7E7ECC6002000000140F7
:1039C000F8F3020800B58BB024484FF08043036041
:1039D00000234360602282604FF48052C260036122
:1039E00007F0F4F928BB00230893099308A91B48A2
:1039F00000F026F910BB70230193002302930222EA
:103A000003920593082201A9144807F0A6FAD0B939
:103A100041F201030293002303930C2201A90F48F2
:103A200007F09BFAA0B90D48FFF7AEFE0BB05DF8AA
:103A300004FBB7210A4800F0D3FED4E7BE210848B2
:103A400000F0CEFED7E7C721054800F0C9FEDFE74A
:103A5000CE21034800F0C4FEE5E700BF74C6002095
:103A6000F8F3020800B58BB02248234B03605323C0
:103A700043600023836040F6C312C260036107F015
:103A8000A5F9F8B900230893099308A9194800F08B
:103A9000D7F8E8B9602301930023029303930593B9
:103AA000082201A9134807F058FAB8B90C2201A955
:103AB000104807F052FAB8B90E48FFF765FE0BB090
:103AC0005DF804FB40F223110C4800F089FED9E7B1
:103AD0004FF49571094800F083FEDBE740F23311A3
:103AE000064800F07DFEE1E74FF49C71034800F0CA
:103AF00077FEE1E738C60020000C0040F8F302082A
:103B000000B591B03A483B4B03600023436060220C
:103B1000826040F6AC52C26003610223436107F049
:103B200055F900283FD120230E9300230F930EA9AF
:103B30002F4800F085F800283BD17023079300221E
:103B4000089209920A920B920C920D9207A92848AA
:103B500007F003FA002832D1042207A9244807F00D
:103B6000FCF9002831D1082207A9214807F0F5F90E
:103B700088BB4FF4006300934FF4806301930023EC
:103B800002931422039204934FF400520592069379
:103B90006946174800F07DF818BB1548FFF7F4FD9B
:103BA00011B05DF804FB40F24D11134800F018FE0F
:103BB000B9E74FF4AA71104800F012FEBDE74FF4C8
:103BC000B0710D4800F00CFEC6E740F265110A48DE
:103BD00000F006FEC7E74FF4B571074800F000FE9D
:103BE000C7E74FF4BB71044800F0FAFDD5E700BF0A
:103BF00028C7002000040140F8F3020810B4042391
:103C000003FA01F4036A23EA04030362036A02FA73
:103C100001F10B4303625DF8044B704710B5044695
:103C200004220068FFF7EAFF2268536C43F4004364
:103C300053642268136843F001031360002010BD31
:103C400090F83830012B22D030B4012280F838208F
:103C5000022380F839300468636823F070036360DE
:103C6000046863680D682B4363600468A36823F0ED
:103C70008003A3600468A36849680B43A36080F8CD
:103C80003920002380F83830184630BC70470220B5
:103C9000704790F83830012B25D0012380F8383058
:103CA000CB6823F440738A68134323F480634A6823
:103CB000134323F400630A68134323F480530A690F
:103CC000134323F400534A69134323F480438A695E
:103CD000134323F40043134302685364002380F822
:103CE000383018467047022070477047704730B42C
:103CF0000468606A19B940EA0240A06218E00D4603
:103D0000A36A00EB13400023691E8B4209DA03F11A
:103D1000400104EB8101496800EB11400133DBB243
:103D2000F2E740EA024005F13F0104EB81014860FF
:103D3000002030BC704703685962002070470000C3
:103D400010B582B0002400941A4B1A6B42F4001292
:103D50001A631A6B02F400120092009A01941A6B13
:103D600042F480021A631B6B03F480030193019BEE
:103D7000224605210B20FEF705F90B20FEF736F948
:103D8000224605210D20FEF7FDF80D20FEF72EF945
:103D9000224605210F20FEF7F5F80F20FEF726F941
:103DA000224605211020FEF7EDF81020FEF71EF93F
:103DB00002B010BD003802402DE9F04106468846A9
:103DC00017461D463BE02DB103F0CAF9069BC01A09
:103DD000A84234D33268536823F0E0035360736819
:103DE000B3F5827F0BD0B36AB3F5005F14D0012323
:103DF00086F85130002386F85030032027E0B3685E
:103E0000B3F5004F02D0B3F5806FECD13268136880
:103E100023F040031360E6E73268136823F400538D
:103E20001B041B0C13603268136843F400531360C7
:103E3000DDE70124BC4209D0B5F1FF3FC3D13468AE
:103E4000A46838EA0403F4D00024F3E70020BDE8B6
:103E5000F08110B582B004460B460092002280210A
:103E6000FFF7AAFF08B902B010BD636D43F020034D
:103E700063650320F7E700283BD010B50446002314
:103E8000836290F85130002B2ED0022384F85130F9
:103E90002268136823F0400313606368A268134329
:103EA000E26813432269134362691343A26902F46F
:103EB00000721343E2691343226A1343A16A226822
:103EC0000B431360638B03F00403616A22680B43A6
:103ED00053602268D36923F40063D36100206065D6
:103EE000012384F8513010BD80F8503000F004FFF9
:103EF000CBE70120704790B110B50446022380F84B
:103F000051300268136823F04003136000F086FF0D
:103F10000020606584F8510084F8500010BD012035
:103F200070472DE9F04385B01D4690F85030012BC5
:103F300000F0C48004460E469146012380F85030BC
:103F400003F00EF9804694F85170FFB2012F40F053
:103F5000AA80002E00F0A880B9F1000F00F0A48024
:103F6000032384F85130002363652663A4F834905A
:103F7000A4F83690A363A387E38763642364A368EC
:103F8000B3F5004F1CD023681A6812F0400F03D11C
:103F90001A6842F040021A60E368B3F5006F15D06A
:103FA00063681BB1E38E9BB2012B41D1236816F8E5
:103FB000012B1A73E38E9BB2013B9BB2E38637E081
:103FC0002268136843F480431360DCE763681BB125
:103FD000E38E9BB2012B0DD1236836F8022BDA60F9
:103FE000E38E9BB2013B9BB2E38603E0D5B1B5F112
:103FF000FF3F11D1E38E9BB2002B32D023689A6829
:1040000012F0020FF2D036F8022BDA60E38E9BB288
:10401000013B9BB2E386EDE703F0A2F8A0EB0800BA
:10402000A842E7D303273FE0CDB1B5F1FF3F10D160
:10403000E28E92B2AAB123689A6812F0020FF3D00E
:1040400016F8012B1A73E28E92B2013A92B2E2860E
:10405000EEE703F085F8A0EB0800A842E8D30327B9
:1040600022E0CDF800802B46012202212046FFF7F6
:10407000A3FE08B1032717E0424629462046FFF772
:10408000E8FE034660B9A26832B903922268D1689B
:10409000039192680392039A626D2AB91F4603E066
:1040A0002023636500E00227012384F851300023B8
:1040B00084F85030384605B0BDE8F0830227F9E7B0
:1040C0002DE9F04385B099460C9F90F85030012BB4
:1040D00000F0148104460E461546012380F8503046
:1040E00003F03EF8804694F85130DBB26268012B51
:1040F0000AD0B2F5827F40F0ED80A268002A40F03D
:10410000F380042B40F0F280002E00F0F180002DAF
:1041100000F0F080B9F1000F00F0EE8094F851301B
:10412000DBB2012B2CD000236365A563A4F83E907D
:10413000A4F83C902663A4F83690A4F83490236445
:10414000636423681A6812F0400F03D11A6842F0C2
:1041500040021A60E368B3F5006F15D063681BB1C5
:10416000E38E9BB2012B08D1236816F8012B1A733A
:10417000E38E9BB2013B9BB2E3864FF0010965E001
:10418000052384F85130CEE763681BB1E38E9BB200
:10419000012B08D1236836F8022BDA60E38E9BB23C
:1041A000013B9BB2E3864FF0010914E0E38F9BB221
:1041B00073B123689A6812F0010F09D0DB6825F803
:1041C000023BE38F9BB2013B9BB2E3874FF00109B7
:1041D000B7F1FF3F1DD1E38E9BB21BB9E38F9BB2BA
:1041E000002B58D0B9F1000FE0D0E38E9BB2002B2A
:1041F000DCD023689A6812F0020FD7D036F8022B71
:10420000DA60E38E9BB2013B9BB2E3864FF000097C
:10421000CCE702F0A5FFA0EB0800B842DBD30320F7
:1042200059E0E38F9BB273B123689A6812F0010FD3
:1042300009D0DB6805F8013BE38F9BB2013B9BB2E1
:10424000E3874FF00109B7F1FF3F1CD1E38E9BB22A
:1042500013B9E38F9BB2F3B1B9F1000FE1D0E38E54
:104260009BB2002BDDD023689A6812F0020FD8D0E1
:1042700016F8012B1A73E38E9BB2013B9BB2E386C7
:104280004FF00009CDE702F06BFFA0EB0800B84249
:10429000DCD303201FE0CDF800803B460122022141
:1042A0002046FFF789FD08B1032014E04246394655
:1042B0002046FFF7CEFD48B9A36863B9039323688E
:1042C000DA6803929B680393039B04E020236365F1
:1042D000012000E00220012384F85130002384F8FB
:1042E000503005B0BDE8F0830220F4E70220F2E789
:1042F0000120F0E70120EEE70120ECE70220F0E7E3
:1043000038B5044690F85000012800F08380012061
:1043100084F8500094F85100C0B26568012807D0B5
:10432000B5F5827F67D1A568002D69D1042869D1D0
:10433000002969D0002A69D0002B69D094F8510077
:10434000C0B201284CD0002060652163A386E386BB
:10435000A263A387E3872064606494F85130DBB2E2
:10436000042B41D0E36C2C4A1A64E36C2B4ADA63C9
:10437000E36C2B4ADA64E36C00251D652168E38F4A
:104380009BB2A26B0C31E06C01F023FA22685368F7
:1043900043F001035360A36C1D64A36CDD63A36C45
:1043A000DD64A36C1D652268E38E9BB20C32216B29
:1043B000A06C01F00EFA23681A6812F0400F03D1C6
:1043C0001A6842F040021A602268536843F02003E2
:1043D00053602268536843F00203536000200BE0EF
:1043E000052084F85100AEE7E36C0E4A1A64E36CD2
:1043F0000D4ADA63BCE70220002384F8503038BD50
:104400000220F9E70220F7E70120F5E70120F3E7B2
:104410000120F1E70220F2E73D440008C144000812
:1044200049440008314400086B4400087047704755
:1044300008B5806BFFF7FBFF08BD704708B5806BC0
:10444000FFF7FBFF08BD704708B5806B0268536833
:1044500023F003035360436D43F0100343650123CE
:1044600080F85130FFF7EFFF08BD08B50346806BB9
:104470001B681B6813F4807F0FD10268536823F018
:10448000030353604368B3F5827F09D00023C387D9
:10449000012380F85130436D7BB9FFF7C7FF08BD9A
:1044A0008368B3F5004F02D0B3F5806FEED1026898
:1044B000136823F040031360E8E7FFF7C4FFEEE75B
:1044C00038B50546846B02F04BFE2B681B6813F46D
:1044D000807F16D1024664212046FFF7BAFC18B14E
:1044E000636D43F0200363652268536823F0030380
:1044F00053600023E386E387012384F85130636D22
:104500001BB9204609F00EFB38BD2046FFF79BFF84
:10451000FAE7000010B584B0044602685168936859
:1045200003F0410001285CD013F0020F02D011F01B
:10453000800F5DD113F4B07F5DD011F0200F5AD001
:1045400013F0400F0FD094F85100C0B2032854D09C
:10455000606D40F00400606500200090D06800901D
:1045600090680090009813F0200F0CD0606D40F020
:10457000010060650020029090680290106820F0B1
:1045800040001060029A13F4807F09D0636D43F0FD
:10459000080363650023039323689B680393039BCD
:1045A000636D43B32268536823F0E0035360012333
:1045B00084F8513011F0030F27D02268536823F09C
:1045C00003035360E36C23B1124A1A65E06C01F0F7
:1045D00084F9A36C7BB10F4A1A65A06C01F07DF9D8
:1045E00009E011F0400F9FD0236C2046984702E06D
:1045F000636C2046984704B010BD00230193D36834
:10460000019393680193019BF5E72046FFF71BFF99
:10461000F1E700BF1946000808B5806B0023C38787
:10462000C386FFF710FF08BD08B505E0074801F095
:10463000B1FC4320FDF7DAFC4FF0FF31044B186862
:1046400004F042FD0028F7D1F0E700BF80C700204A
:104650007CC7002008B503F011F80FF017F8024BE3
:10466000186805F0A3FB08BD74C7002030B587B0FB
:1046700001AC064D0FCD0FC42B682360002101A8AB
:1046800004F08FFC024B186007B030BD30F3020815
:1046900070C7002070B58AB000240994012109A8D0
:1046A00004F0FEFC1D4B1860214604F00DFD08943B
:1046B000012108A804F0F4FC194B186007940121AB
:1046C00007A804F0EDFC174B1860214604F0FCFC31
:1046D0000694012106A804F0E3FC134B186005942E
:1046E000012105A804F0DCFC104B1860214604F001
:1046F000EBFCFFF7BBFF0EF0A5F90EF0BFFD6D461A
:104700000B4E0FCE0FC533682B602146684604F070
:1047100048FC084B18600AB070BD00BF7CC7002081
:104720006CC7002064C7002068C7002078C700203D
:1047300044F3020874C7002008B51A4B1A681A4BD4
:104740009A4212D0174B1A68184B9A420FD0154B49
:104750001B682A2B15D108BD00BF0133144A9342B0
:10476000FAD3104B114A1A60ECE70023F6E70D4B21
:10477000104A1A60104B83F30888104B1B68984747
:10478000E5E7084B2A221A60BFF34F8F0C49CA682D
:1047900002F4E0620B4B1343CB60BFF34F8F00BFBB
:1047A000FDE700BF0406002075FEADDEEFBEADDE06
:1047B00000A86100EDFEFECA000002200400FF1FF9
:1047C00000ED00E00400FA0508B50268034B9A42C8
:1047D00000D008BD02F0B8FCFBE700BF002000409D
:1047E000FEE7000000B595B0002101912C4B1A6C3A
:1047F00042F080521A641B6C03F080530193019BBA
:104800000291284B1A6842F480421A601B6803F434
:1048100080430293029B092308934FF4803309934A
:1048200001230D9302230E934FF480020F92042272
:104830001092A822119212930723139308A802F052
:10484000A9FF20BB0F2303930223049300230593A6
:104850004FF4A05306934FF480530793052103A808
:1048600003F0CAF9B8B903F075FA0F4BA3FB003097
:104870008009FDF7D3FB0420FDF7E6FB00220F21A2
:104880004FF0FF30FDF77EFB15B05DF804FBFC2117
:104890000648FFF7A5FF4FF485710448FFF7A0FF16
:1048A0000038024000700040D34D621030F402081E
:1048B00010B5254B1B68254A12681344180C244A6E
:1048C000528842EA0342034622490A6048600021B6
:1048D0000AE0C3F30330204C245C204844541B01FD
:1048E00043EA1273120101310B29F2D91B4B00224A
:1048F0001A7302F00FFCFFF775FF04F071FFFFF76A
:104900001FFA01F053FF01F0A3FFFEF7B3FFFFF71B
:10491000F7F8FEF7DBFDFEF711FE00F0C5F901F038
:10492000EBFFFFF74FF800F03DFCFFF79BF8FEF7B9
:104930003FFE0B48FEF7B7FD0A48FEF7B4FDFFF750
:10494000A9FE04F01FFBFEE7107AFF1F187AFF1F75
:10495000147AFF1F68BE002044F4020870BE0020D5
:10496000ECC6002028C700200368B3F1A04F00D098
:10497000704710B586B04FF4C053019302230293E1
:1049800000240394032304930A23059301A90E48EA
:1049900006F050FE0D4B5A6B42F080025A630094B1
:1049A0005A6C42F480425A645B6C03F48043009377
:1049B000009B224605214320FDF7E4FA4320FDF742
:1049C00015FB06B010BD00BF0000024000380240D9
:1049D000F8B50446D0F8EC5305F5027700F56F768C
:1049E0003146384602F0A1F895F8083203F060032A
:1049F000402B03D195F80932502B05D03146D4F81D
:104A0000EC0300F0C9FCF8BD0123C5F8F431B5F89A
:104A10000E32C5F8F831D5F814329B68394628466D
:104A20009847B5F80E32002BEDD10028EBD128467F
:104A3000FDF746FBE7E708B5C1EBC10300EB8303D5
:104A4000D3F80422D0F8EC0300F0D3FC08BD08B57D
:104A5000C1EBC10300EB83035A6CD0F8EC0300F008
:104A6000FEFC08BD08B5D0F8EC0300F082FD08BDDF
:104A700010B50446C3684BB10121D4F8EC0300F033
:104A800066FDD4F8EC0300F043FD10BD0021F4E70F
:104A900010B50446D0F8EC0300F05CFD2268D2F8B3
:104AA000003E43F00103C2F8003E236A23B1034AEB
:104AB000136943F00603136110BD00BF00ED00E071
:104AC00008B5D0F8EC0300F04EFD08BD08B5D0F8ED
:104AD000EC0300F05EFD08BD08B5D0F8EC0300F073
:104AE00056FD08BD08B5D0F8EC0300F054FD08BD34
:104AF00008B5D0F8EC0300F050FD08BD02780AB10B
:104B00000020704710B503461948C0F8EC33C3F8CD
:104B100020024FF0A0430360062343600222C260DC
:104B20000023036143618261C36103624362C36224
:104B3000036301F0A9F9A8B90D4C80212046FFF7C5
:104B4000FAF8402200212046FFF7D1F84022012147
:104B50002046FFF7CCF8402203212046FFF7C7F894
:104B6000002010BD4FF4AC710248FFF739FEE3E7B7
:104B700080C7002058F4020808B5D0F8200201F0E0
:104B8000F3F9022805D8DFE800F00504020001204F
:104B900000E0022008BD10B514461A462346D0F89E
:104BA000200201F0E5FC022805D8DFE800F005044A
:104BB0000200012000E0022010BD08B5D0F820025C
:104BC00001F00AFD022805D8DFE800F00504020024
:104BD000012000E0022008BD08B5D0F8200201F055
:104BE00087FD022805D8DFE800F005040200012057
:104BF00000E0022008BD08B5D0F8200201F0ABFDAE
:104C0000022805D8DFE800F005040200012000E0DA
:104C1000022008BDD0F8203211F0800F08D101F039
:104C20007F01C1EBC10103EB810191F8FA017047EB
:104C300001F07F01C1EBC10103EB810191F83A0062
:104C4000704708B5D0F8200201F080FC022805D892
:104C5000DFE800F005040200012000E0022008BDAA
:104C600008B5D0F8200201F019FD022805D8DFE8C8
:104C700000F005040200012000E0022008BD08B594
:104C8000D0F8200201F0D3FC022805D8DFE800F0BC
:104C900005040200012000E0022008BD08B5D0F89C
:104CA000200201F0F2FC08BD08B51048104B03606B
:104CB0004FF482734360002383604FF40062C2604C
:104CC0000361012242614FF4007282611822C261C5
:104CD0000362436283620A23C362FFF7CCF800B920
:104CE00008BD52210348FFF77BFDF9E770CB002098
:104CF000003C004074F402080268414B9A4200D024
:104D0000704730B587B004460025009503F5FE33A3
:104D10001A6C42F400421A641B6C03F400430093C3
:104D2000009B4FF4E053019302230293012303936A
:104D3000032304930623059301A9324806F07AFC65
:104D4000314B324A1A605D6040229A60DD604FF458
:104D500080621A61E368002B37D12B4B5D619D6146
:104D600029480023C3614FF480320262436200F09D
:104D70009FFC002831D1244BA3649C63244B254A1B
:104D80001A6000225A609A60DA604FF480621A61F9
:104D9000E3683BBB1E4B00225A619A611C4800230A
:104DA000C3614FF480320262436200F081FC08BBB1
:104DB000174BE3649C63002205213320FDF7E2F8E2
:104DC0003320FDF713F907B030BD0F4B4FF40062ED
:104DD0005A614FF400529A61C2E784210E48FFF7EE
:104DE000FFFCC8E70A4B4FF400625A614FF40052CF
:104DF0009A61D3E79B210848FFF7F2FCD8E700BF90
:104E0000003C004000080240C8CB002088600240FF
:104E100028CC00201060024074F4020802680D4B98
:104E20009A4200D0704710B504460B4A136C23F425
:104E3000004313644FF4E051084806F0E1FCA06C15
:104E400000F09CFCE06C00F099FC3320FDF7DAF8F0
:104E500010BD00BF003C0040003802400008024086
:104E60000B4B1B68B3F1FF3F08D04FF0500383F3A7
:104E70001188BFF36F8FBFF34F8FFEE74FF05003E2
:104E800083F31188BFF36F8FBFF34F8FFEE700BF2F
:104E90000000002006480068006880F3088862B6B9
:104EA00061B6BFF34F8FBFF36F8F00DF00BF00000D
:104EB00008ED00E0DFF80C00016841F470010160CA
:104EC0007047000088ED00E04FF0807340F8043C2C
:104ED00021F0010140F8081C054B40F80C3C40F85B
:104EE000202C6FF0020340F8243C4438704700BF88
:104EF000614E0008000000000000000000000000FB
:104F0000074B19680868B0E8F04F80F30988BFF3D1
:104F10006F8F4FF0000080F311887047AFF300806F
:104F2000EC0600204FF0500383F31188BFF36F8F1E
:104F3000BFF34F8F0A4A136801331360012B00D06F
:104F40007047084B1B6813F0FF0FF9D04FF0500368
:104F500083F31188BFF36F8FBFF34F8FFEE700BF5E
:104F60000000002004ED00E0094B1B6843B94FF03E
:104F7000500383F31188BFF36F8FBFF34F8FFEE7AA
:104F8000013B034A13600BB983F31188704700BFDC
:104F900000000020000000000000000000000000F1
:104FA000EFF30980BFF36F8F154B1A681EF0100FD7
:104FB00008BF20ED108A20E9F04F10604DF8043D45
:104FC0004FF0500080F31188BFF34F8FBFF36F8F06
:104FD00005F024F94FF0000080F3118808BC19682F
:104FE0000868B0E8F04F1EF0100F08BFB0EC108A50
:104FF00080F30988BFF36F8F704700BFAFF3008065
:10500000EC06002008B54FF0500383F31188BFF37E
:105010006F8FBFF34F8F04F08DFF18B1034B4FF02C
:1050200080521A60002383F3118808BD04ED00E06C
:10503000064B1B68064AA2FB03239B09013B054A5A
:105040001360054B07221A60704700BFF40100206F
:10505000D34D621014E000E010E000E0314B1A681C
:10506000314B9A421AD02F4B1A68304B9A421ED0BD
:1050700000B583B02E4B1A78D2B20192FF221A707B
:105080001B78DBB28DF803309DF8033003F050033A
:10509000284A1370284B07221A601BE04FF0500378
:1050A00083F31188BFF36F8FBFF34F8FFEE74FF08D
:1050B000500383F31188BFF36F8FBFF34F8FFEE769
:1050C0001D4A1368013B13609DF803305B00DBB29F
:1050D0008DF803309DF8033013F0800FF0D1164A9D
:1050E00013681B0203F4E0631360019BDBB2104AF8
:1050F0001370124B1A6842F470021A601A6842F078
:1051000070421A60FFF794FF0D4B00221A60FFF700
:10511000D1FE0C4A136843F040431360FFF7BAFE18
:10512000FFF79EFE00ED00E071C20F4170C20F411B
:1051300000E400E0240600202806002020ED00E026
:105140000000002034EF00E0EFF305830F2B0FD9B0
:10515000104A9B5CDBB2104A12789A4208D94FF091
:10516000500383F31188BFF36F8FBFF34F8FFEE7B8
:105170000A4B1B6803F4E063094A1268934208D99A
:105180004FF0500383F31188BFF36F8FBFF34F8F3E
:10519000FEE77047F0E300E0240600200CED00E09D
:1051A0002806002008B50B480B4B03604FF4E13391
:1051B000436000238360C36003610C22426183610A
:1051C000C36102F0EFFF00B908BD4E210348FFF7AD
:1051D00007FBF9E748CD0020004C004088F40208A6
:1051E00002683B4B9A4200D070472DE9F04387B0EC
:1051F00004460025009503F5F6331A6C42F40022AC
:105200001A641B6C03F400230093009B0123019399
:105210000226029603964FF00309CDF810904FF046
:105220000808CDF814802B4F01A9384606F002FA81
:10523000019602960395CDF81090CDF8148001A93F
:10524000384606F0F7F92448244B03604FF000631A
:1052500043608560C5604FF480630361456185618B
:105260004FF48073C3610562456200F021FA28BBE8
:10527000194B63639C631A481A4B03604FF0006339
:105280004360402383600023C3604FF48062026167
:1052900043618361C3610362436200F009FA90B91C
:1052A0000F4B23639C63002205213420FCF76AFE28
:1052B0003420FCF79BFE07B0BDE8F0837F210A484D
:1052C000FFF78EFAD4E791210748FFF789FAE7E75D
:1052D000004C00400000024088CC002040600240AA
:1052E000E8CC00207060024088F4020802680C4B91
:1052F0009A4200D0704710B504460A4A136C23F452
:10530000002313640321084806F07AFA606B00F06A
:1053100035FA206B00F032FA3420FCF773FE10BD32
:10532000004C0040003802400000024098B108B52F
:105330000346D0F8140210B10020C3F8140209B1DA
:10534000C3F81012012183F8FC111A701846FFF7F8
:10535000D5FB002008BD0220704719B1C0F8141217
:10536000002070470220704708B5FFF705FC0020B9
:1053700008BD08B5D0F814322BB11B68984700B9A6
:1053800008BD0220FCE70220FAE708B5D0F8143285
:105390005B689847002008BD38B5044600F50275E3
:1053A000284601F0C2FB0123C4F8F431B4F80E32F0
:1053B000C4F8F83194F8081201F01F03012B0ED045
:1053C000022B11D02BB101F080012046FFF704FC25
:1053D00003E02946204601F024FD002038BD29467F
:1053E000204601F042FDF8E72946204601F058FD2D
:1053F000F3E710B5044629BB1346D0F8F421032A7D
:1054000001D0002010BDD0F80C11D0F8102191422D
:105410000BD8D0F814321B691BB190F8FC21032A79
:105420000ED02046FCF74CFEEBE7891AC0F80C11B1
:105430008A4228BF0A4692B21946FCF739FEE0E7D5
:105440009847EEE70A46D0F814329B69002BD8D073
:1054500090F8FC110329D4D111469847D1E710B533
:105460000446002947D11346D0F8F421022A05D07A
:1054700094F80032012B3AD0002010BDC169026AB5
:10548000914217D88169B1FBF2F302FB13132BB9D8
:105490008A4203D8D0F8F831994218D3D4F814329C
:1054A000DB681BB194F8FC21032A1DD02046FCF7D1
:1054B00012FEDDE78A1AC26192B21946FCF7E1FDDD
:1054C00000231A4619462046FFF7D9FBD0E70022F1
:1054D0001146FCF7D6FD0021C4F8F8110B460A4628
:1054E0002046FFF7CCFBC3E720469847DEE70023C2
:1054F00084F80032C0E70A46D0F814325B69002B0A
:10550000BAD090F8FC110329B6D111469847B3E7F9
:1055100038B50446402300221146FFF73CFB4025E6
:10552000C4F810512B46002280212046FFF733FBA0
:105530002562012384F8FC31D4F818322BB1D4F859
:1055400014325B68217920469847002038BD0174E9
:105550000020704790F8FC3180F8FD31042380F87A
:10556000FC310020704790F8FD3180F8FC310020BC
:10557000704708B590F8FC31032B01D0002008BD1E
:10558000D0F81432DB69002BF8D09847F6E70020FA
:105590007047002070470020704708B5012280F84E
:1055A000FC21D0F81422526801799047002008BDF0
:1055B00030B405682C6824F480242C60046863608F
:1055C0008368402B05D0036899600368DA6030BCBB
:1055D000704703689A600368D960F8E710B40368FD
:1055E000D9B210390C4AA2FB014212090B4CA25C41
:1055F000C2655F2909D923F47F7323F003030433C1
:105600008365806D5DF8044B704723F47F7323F04E
:1056100003038365F5E700BFABAAAAAAA0F40208BA
:10562000836A826992B9012B0AD0022B02D00BB196
:1056300000207047C36A13F0807F28D10020704794
:10564000C36AB3F1C07F24D000207047B2F5005F79
:1056500009D0022B25D9032B25D1C36A13F0807FF3
:1056600023D100207047032B03D8DFE803F0140494
:10567000140A00207047C36A13F0807F0DD1002008
:105680007047C36AB3F1C07F09D000207047012082
:1056900070470120704701207047012070470120AA
:1056A00070470120704700207047012070470000BC
:1056B00070B5044601F054FD002C5BD00546002374
:1056C00084F83430022384F835302268136823F0DC
:1056D0000103136023681A6812F0010F0AD001F069
:1056E0003FFD431B052BF5D920236365032084F878
:1056F000350070BD1A68204810406168A2680A43EE
:10570000E1680A4321690A4361690A43A1690A43BE
:10571000E1690A43216A0A430243616A04291ED0EF
:105720001A602668756925F00705636A1D43042B16
:1057300007D1A36A1D43E36A1BB12046FFF770FF40
:1057400090B975612046FFF749FFE26D3F23934012
:10575000836000206065012384F83530C9E7E16A81
:10576000206B01430A43DBE740236365012084F893
:105770003500BEE70120BCE73F8010F038B338B5F4
:10578000054690F83500C0B202281FD02A68136879
:1057900023F0010313602B6800241C602B685C60FD
:1057A0002B689C602B68DC602B681C612B682122B5
:1057B0005A612846FFF712FFEA6D3F23934083604A
:1057C0006C6585F8354085F83440204638BD0120A9
:1057D000704738B50446856D90F83400012830D004
:1057E000012084F8340094F83500C0B2012804D0B8
:1057F000002384F83430022038BD022084F83500BC
:10580000002060652046FFF7D3FEE26D3F23934002
:10581000AB602268136843F0160313602268536973
:1058200043F080035361236C23B12268136843F073
:10583000080313602268136843F00103136000201B
:10584000DAE70220D8E770B50446866D01F088FCDF
:1058500094F83530DBB2022B06D080236365002339
:1058600084F83430012070BD05462268136823F0A7
:10587000160313602268536923F080035361236C7D
:10588000E3B12268136823F00803136022681368E9
:1058900023F00103136023681B6813F0010F11D07C
:1058A00001F05EFC431B052BF5D920236365002323
:1058B00084F83430032084F83500D4E7A36C002B3F
:1058C000DFD1E3E7E26D3F239340B360002084F82B
:1058D0003400012384F83530C5E790F83530DBB269
:1058E000022B03D08023436501207047052380F8F5
:1058F00035300268136823F00103136000207047FD
:10590000F0B583B0044600230193724B1D68724BBF
:10591000A3FB0535AD0A876D3E68C26D0823934031
:10592000334210D003681A6812F0040F0BD01A68C3
:1059300022F004021A60C26D08239340BB60436DDD
:1059400043F001034365E26D01239340334209D0E4
:105950002268526912F0800F04D0BB60636D43F07F
:1059600002036365E26D04239340334209D0226849
:10597000126812F0020F04D0BB60636D43F00403A1
:105980006365E26D10239340334224D0226812688D
:1059900012F0080F1FD0BB6023681A6812F4802F22
:1059A0000DD01B6813F4002F04D1236C9BB120464B
:1059B000984710E0A36C73B1204698470BE01A6833
:1059C00012F4807F03D11A6822F008021A60236C57
:1059D0000BB120469847E26D20239340334255D0C7
:1059E0002268126812F0100F50D0BB6094F8353066
:1059F000DBB2052B0ED023681A6812F4802F33D047
:105A00001B6813F4002F2AD1636C002B3ED0204674
:105A100098473BE02268136823F01603136022685E
:105A2000536923F080035361236CA3B12268136888
:105A300023F008031360E26D3F239340BB60002313
:105A400084F83430012384F83530236D002B3FD0A7
:105A5000204698473CE0A36C002BE7D1EBE7E36BD3
:105A6000A3B12046984711E01A6812F4807F09D14B
:105A70001A6822F010021A60002384F834300123DF
:105A800084F83530E36B0BB120469847636DFBB16A
:105A9000636D13F0010F17D0052384F835302268A9
:105AA000136823F001031360019B01330193AB42A0
:105AB00004D823681B6813F0010FF5D1002384F884
:105AC0003430012384F83530E36C0BB1204698471D
:105AD00003B0F0BDF4010020B5814E1B124A12F054
